:020000040800F2
:10000000900B0020010100087D2F000889280008BE
:10001000ED2D00083F0F0008094100080000000016
:10002000000000000000000000000000153800087B
:10003000410F0008000000002537000817380008AD
:100040001B0100081B0100081B0100081B01000820
:100050001B0100081B0100081B0100081B01000810
:100060001B0100081B0100081B0100081B01000800
:100070001B0100081B0100081B0100081B010008F0
:100080001B0100081B0100081B0100081B010008E0
:100090001B0100081B0100081B0100081B010008D0
:1000A0001B0100087D3800081B0100081B01000827
:1000B0001B0100081B0100081B0100081B010008B0
:1000C0001B0100081B0100081B0100081B010008A0
:1000D0001B0100081B010008F54000081B01000877
:1000E0001B0100081B0100081B010008DFF80CD0F1
:1000F00000F0CCFC004800474D4F0008900B00205A
:100100000648804706480047FEE7FEE7FEE7FEE7B1
:10011000FEE7FEE7FEE7FEE7FEE7FEE779380008C8
:10012000ED000008202A04DB203A21FA02F0002129
:10013000704721FA02F3D040C2F1200291400843F7
:1001400019467047D2B201E000F8012B491EFBD2DC
:1001500070470022F6E710B513460A4604461946D2
:10016000FFF7F0FF204610BD10B5002200E0521C42
:10017000835C8C5CA34201D1002BF8D1D8B2E1B2F0
:10018000401A10BD70B50F4D00B92868002412E068
:100190000A4602E09E4203D0521C1378002BF9D18C
:1001A000DAB2224305D02BB124B1002100F8011BA3
:1001B00004E00446401C0678002EE9D12860204661
:1001C00070BD00006000002070B5064603F0E4FF3B
:1001D000046805460A220021304600F073FB2C60BB
:1001E00070BDF0B480EA0102D40F4200B2EB410FBF
:1001F00002D20246084611464A0042D0C30DDDB283
:10020000C1F3C752AD1A202D35DAC1F3160141F4FE
:10021000000204B15242C5F1200602FA06F12A4159
:100220001044B3EBD05F23D0C4B1012DA0EBC35079
:1002300009DCF0BC4FF0004202EAC352DBB200F529
:10024000000000F080BB400000F1807000EBC35064
:10025000A0F1807040EAD170490009E0490841EA04
:10026000C071A0EBC35000F50000400800EBC35084
:10027000F0BC00F05FBB6142012202EB4101001BB8
:10028000F6E7F0BC704781F00041AAE780F000403B
:10029000A7E780EA010210B502F00043400022D037
:1002A0004A001FD0010E01EB1261C0F35600C2F3E9
:1002B000560240F4000042F40002A0FB02200004B9
:1002C0007F39140400D0401C50EA124001D4400091
:1002D000491EC2B20C0604EBD010401C4008802A14
:1002E00002D003E0002010BD20F00100002900DA58
:1002F0000020184310BD420005D0C0F3C75252423F
:10030000914201DC0020704700EBC15070472DE99D
:10031000FE4F804681EA0300C00F0C46009021F09A
:10032000004123F00045B8EB0200A94105D2404648
:10033000214690461C460B46024623F000401043DF
:1003400047D0270DC7F30A00C3F30A510290401AA1
:10035000019040286BDAC3F3130040F4801B00982F
:10036000924620B10023D2EB030A63EB0B0B0198FA
:100370005946C0F14002504600F035FA06460D4697
:1003800050465946019A00F03DFA10EB08006141D1
:10039000002487EA115284EAE7731A4340D0009A96
:1003A00062B3019A012A4FEA075215DC001B61EB88
:1003B00002014FF0004202EA0752CDE90042001C60
:1003C00041F5801132462B4600F0FAFA03B0BDE841
:1003D000F08F40462146F9E7001B61EB0201001C4B
:1003E00041F5801300185B412018A2F5001747EB78
:1003F000030140EAD570B6196D4111E06D084FEA6E
:10040000360645EAC0754FEA0752001B61EB020150
:10041000001C41F5801149084FEA30000019514194
:1004200032462B4603B0BDE8F04F00F0BABA009850
:10043000012240000023D0EB020263EBE07300983E
:1004400021464FEAE074B8EB000061EB0401E9E7F4
:1004500083F000435BE781F0004158E72DE9FE4F50
:1004600081EA030404F0004421F0004100944FF0BD
:10047000000B23F0004350EA01045ED052EA03046B
:100480005BD0C3F30A54C1F30A552C44A4F2F334ED
:100490000194A0FB0254C1F3130141F48011C3F392
:1004A000130343F4801301FB024400FB034E840A50
:1004B000970A44EA815447EA8357A4FB07680295E8
:1004C0008D0A05FB07854FEA932C04FB0C54270586
:1004D000029D4FEA065847EA1637B5EB08056EEB62
:1004E000070C870E920E47EA811742EA8312A7FB98
:1004F0000201B6EB0B0164EB00042B0D43EA0C3355
:100500005E1844EB1C50DA465146E7FB0201C5F386
:1005100013044FEA0B3343EA14534FEA0432019CAD
:1005200043EA0603A4F10C040294009CCDE900B454
:1005300000F046FA03B0BDE8F08F00200146F9E76D
:100540002DE9F04D81EA030404F0004B21F0004551
:1005500014464FF0000A23F0004150EA050220D073
:1005600054EA01021DD0C5F30A570246C5F313032E
:10057000C1F31300C1F30A5640F4801543F480130D
:10058000A7EB0608101BD64608F2FD3873EB0500F2
:1005900002D308F1010801E092185B41B8F1000FA5
:1005A00003DA00200146BDE8F08D00204FF48011F1
:1005B000064684460EE0171B73EB050705D3121B96
:1005C00063EB050306434CEA010C49084FEA30008F
:1005D00092185B4150EA0107EDD152EA030012D0B4
:1005E00082EA040083EA0501084305D0101BAB41F1
:1005F00006D20122002306E000224FF0004302E071
:100600006FF0010253101AEB06004CEB085110EB8F
:100610000A0041EB0B01BDE8F04D00F0C2B970B526
:1006200021F0004303430CD0C1F30A550024D5EB5D
:10063000040564EB0403D617AD1AB34102DB0020B6
:10064000014670BD201841EB025170BD0EB5C10FBF
:1006500080EAE0700844CA07002140F233438DE885
:100660000E000A460B4600F0ABF903B000BD00F0E7
:10067000004220F00040C10DC0F3160040F400001D
:100680007F2901DA00207047962903DCC1F1960129
:10069000C84001E096398840002AF4D040427047B3
:1006A00000F0004230F000400AD0C10D01F5607149
:1006B000C0F3160042EA0151C208400711437047D7
:1006C000002001467047000030B5041E71F100049F
:1006D00004DB4FF00044404264EB0101141E73F14F
:1006E000000405DB1C464FF00043524263EB040359
:1006F000994208BF904230BD01F0004330B421F070
:10070000004150EA010206D00A0DA2F56072C1F361
:100710001301002A02DC30BC00207047440F44EA79
:10072000C104C100E01830BC00EBC25000F002B9B7
:10073000002801DBC0F10040002901DBC1F10041CC
:1007400081427047002801DBC0F10040002901DB35
:10075000C1F100418842704730B50B460146002088
:100760002022012409E021FA02F59D4205D303FA73
:1007700002F5491B04FA02F52844151EA2F10102F4
:10078000F1DC30BD2DE9F05F0546002092469B4626
:1007900088460646814640241BE028464146474697
:1007A0002246FFF7BFFC53465A46C01A914110D368
:1007B00011461846224600F016F82D1A67EB01087C
:1007C0004F4622460120002100F00DF817EB0009EA
:1007D0004E41201EA4F10104DFDC484631462A4682
:1007E0004346BDE8F09F202A04DB203A00FA02F1DC
:1007F000002070479140C2F1200320FA03F319430F
:1008000090407047202A06DBCB17203A41FA02F0CD
:1008100043EAE07306E041FA02F3D040C2F120025D
:1008200091400843194670470FB4002300B589B0C2
:100830000CA900910B996FF00042CB601E4B069300
:100840001E4B07930423CDE901321D4A089202464C
:100850006B46002000F0CEF909B05DF814FB70B5CE
:1008600086B006464FF0FF300091CDE9010100202F
:1008700015460C4604903246694604A8FFF7D4FF9B
:1008800002460498211825B108B1084600E0204628
:100890002860049800280DD0002A02DD00988842C4
:1008A00008D0081B0094CDE901043246694604A82B
:1008B000FFF7BAFF06B070BD2D0E00084B0E000802
:1008C000B90A00082DE9F04791460F4680460446D4
:1008D000002614F8015B2DB100F0EAF80068405DD5
:1008E000C007F6D12B2D02D02D2D18D0641E4A46FC
:1008F0003946204600F0BAFA27B13968A14201D141
:10090000C7F8008071054FF002040BD54042002863
:1009100003DD03F041FC0460A007BDE8F08746F466
:100920008066E4E70028F8DA03F036FC04606FF034
:100930000040F2E70029A8BF7047401C490008BFEB
:1009400020F00100704710B4B0FA80FC00FA0CF0FF
:1009500050EA010404BF10BC704749B1CCF1200437
:1009600021FA04F411FA0CF118BF012121430843C4
:10097000A3EB0C01CB1D4FEA00614FEA102042BFF0
:10098000002010BC704700EBC35010440029A4BFE6
:1009900010BC7047401C490008BF20F0010010BC8B
:1009A000704710B5141E73F1000408DA401C41F1C1
:1009B000000192185B411A4301D120F0010010BDE3
:1009C0002DE9F04D92469B4611B1B1FA81F202E059
:1009D000B0FA80F220329046FFF705FF04460F463A
:1009E00040EA0A0041EA0B0153465A46084313D035
:1009F000114653EA010019D0C8F140025046FFF7F2
:100A000091FB05460E46504659464246FFF7EBFE1F
:100A1000084305D0012004E020463946BDE8F08DAA
:100A20000020054346EAE0762C4337430A986305E5
:100A3000E40AA0EB08000022FD0A44EA47540A3009
:100A400002D500200146E9E7010510196941DDE9F9
:100A5000084500196941BDE8F04DA2E7C1F30A520B
:100A6000C1F3130140F2FF3341F480119A4202DADC
:100A700000200146704740F233439A42A2F23342CB
:100A800002DC5242FFF74EBBFFF7ADBE064C074DEE
:100A900006E0E06840F0010394E80700984710344E
:100AA000AC42F6D3FFF726FB106000083060000868
:100AB000004870470C60000810B50446FFF7F8FFC7
:100AC0000068005D00F0010010BD00002DE9FF4F3F
:100AD000087883B09946FF2805D0491C2D2804D0FA
:100AE0000024002008E000200BE00124F9E700EBDF
:100AF000800003EB4000491C0B78FF2BF7D104B1B9
:100B0000404200230293147819461D462D2C01D033
:100B10002B2C04D1521C2D2C13D000240294AA4655
:100B20001478FF2C0FD00A25A3FB057801FB058163
:100B30004FF0000C03FB0C11521CE3194AEB0101AE
:100B4000EEE70124EAE7814453EA010002D019F5F7
:100B5000C87F06DA03980021C0E9001107B0BDE89C
:100B6000F08F0025AE4E2F46DFF8B882184600F011
:100B7000DAF9CDE90001B9F1000002DAC9F10004A7
:100B800000E004460023A74A1AEB030B42EB045A89
:100B900012E0E00707D02A46334638464146FFF7C1
:100BA0005DFC074688462A46334610461946FFF73D
:100BB00055FC05460E466410002CEAD1DDE9000123
:100BC000B9F1000F5A46534606DAFFF7B9FC3A4628
:100BD0004346FFF7B5FC05E0FFF740FC3A464346C5
:100BE000FFF73CFC029A0AB181F00041039AC2E986
:100BF0000001B3E72DE9FF4F1F468DB0D7E901464D
:100C00004FF0FF382E2045464FF000090B90B96990
:100C10006D1C0E988847396A824688470028F6D1AD
:100C2000BAF1FF3F0AD024F4D064002E11DDBAF1EE
:100C30002B0F08D0BAF12D0F0BD102E0404611B0B6
:100C40008DE744F48064B9696D1C0E98884782462C
:100C5000761E6946600501D52D2000E02B208DF819
:100C6000000001F1010B0DF1200809E0B9696D1CCC
:100C70000E98884782460F9844F40074761E0560EB
:100C8000002E02DDBAF1300FF0D00B998A453ED12B
:100C900044F0800406E00F99681CA9F1010944F4AE
:100CA00000740860B9696D1C761E0E9888478246EC
:100CB0003028F0D02BE00B998A4505D1200603D4CB
:100CC00044F08004761E18E0504603F0A9FB08B3F8
:100CD0000DF11301761E44F400748B4508D2AAF17D
:100CE00030000BF8010B200607D5A9F1010003E045
:100CF000200602D409F101008146A00502D50F9912
:100D0000681C0860B9696D1C0E9888478246002EE1
:100D1000D1DC53E0002E51DDBAF1650F02D0BAF1FB
:100D2000450F4BD1A00549D5B9696D1C24F4407419
:100D3000761E0E9888478246002E0CDD2B2804D0A4
:100D4000BAF12D0F07D144F48074B9696D1C0E9867
:100D500088478246761EE00501D52D2100E02B2133
:100D600008F8011BCDF82C8021E00DF12901761E39
:100D700044F4007488450CD2AAF1300010F0FF0052
:100D800088F8000002D10B99884509D908F10108BB
:100D900006E0E00501D5244801E042F20F708146EB
:100DA000B9696D1C0E98884782460F980560002E21
:100DB00004DD504603F034FB0028D6D1F9690E98C3
:100DC0008847FF208BF8000088F80000002006907C
:100DD00007904B466A4608A906A8FFF777FEA005CC
:100DE00002D46FF001002AE714F0240F0AD0E007C4
:100DF00014D1DDE906123868031D3B600068C0E9C4
:100E000000120BE0DDE90601FFF776FC0146E00782
:100E100004D13868021D3A600068016028460EE778
:100E2000000014400000F03FF1D8FFFF426842B1DB
:100E3000016811F8013B23B1521EC0E900121846A7
:100E400070470121C160881E704742685AB1C3686B
:100E5000016843B983688B4205D0491E521CC0E922
:100E60000012002070474FF0FF3070472DE9F05F0F
:100E700082460078002715468B460AF10104B946E0
:100E8000302801D09DB113E014F8010B0127782818
:100E900003D0582801D045B10AE00DB1102D07D17B
:100EA0000027102514F8010B02E0082500E00A25B0
:100EB0000026B0460EE005FB080005FB06F1012701
:100EC00001EB10461FFA80F8B6F5803F00D3B94613
:100ED00014F8010B294600F018F80028EBDABBF1F2
:100EE000000F05D00FB1641E00E05446CBF800405F
:100EF000B9F1000F06D003F04FF902210160C81EBE
:100F0000BDE8F09F48EA0640FAE73A2800D23038B8
:100F100020F02002412A01D3A2F13700884201D3F8
:100F20004FF0FF3070470EB540F23342029200227C
:100F3000CDE900221346FFF743FD03B000BDFEE7F5
:100F400070470000002118B1012803D0002070472D
:100F5000034800E003480268506A516200B27047DB
:100F6000540100209C01002010B501F08FFE01F01B
:100F7000C9FE0C4800F010FF0B4800F00DFF0021E7
:100F8000084801F01EF80421064801F01AF8002173
:100F9000054801F016F8BDE810400421024801F0B0
:100FA00010B80000540100209C01002072B6FEE73A
:100FB00004484178012901D0002070470021417088
:100FC000012070475000002010B590F82110002239
:100FD000022905D00421816380F82020012010BD62
:100FE00001680B6823F00E030B6001680B6823F0A7
:100FF00001030B6090F84030C46B012101FA03F348
:10100000636080F8211080F82020104610BD000099
:1010100010B590F821100024022903D00421816327
:1010200001243DE001680A6822F00E020A600168AE
:101030000A6822F001020A601A4A0168914201D14D
:10104000012121E0174A1432914201D110211BE005
:10105000144A2832914201D1891515E0114A3C32D7
:10106000914201D189140FE00E4A5032914202D1CF
:101070004FF4803108E00B4A6432914202D14FF4C0
:10108000801101E04FF08071064A083A5160012159
:1010900080F82110002180F82010416B01B18847B1
:1010A000204610BD080002402DE9F84FDFF8B89146
:1010B0000024A9F1040B23460F2709F1040AABF120
:1010C000040EC9E00125A5402A40AA427DD1674E01
:1010D000D1F804C0ACEB0608B44532D014DCBCF146
:1010E000030F3AD009DCBCF1000F2AD0BCF1010F8C
:1010F0001CD0BCF1020F31D11DE0BCF1110F17D093
:10110000BCF1120F2AD119E0B8F5881F19D006DCFE
:10111000B8F5803F15D0B8F5801F1FD111E0B8F5A4
:10112000001F0ED0B8F5041F18D10AE0CB6815E0F7
:10113000CB681B1D12E0CB6808330FE0CB680C3383
:101140000CE08B682BB1012B4FF0080303D04561F5
:1011500004E0042302E0056100E00023FF2A01D837
:10116000064601E000F104064FEA840501D9A5F125
:101170002005D6F8008007FA05FC28EA0C0803FAD7
:1011800005F548EA0508C6F800804D68ED0062D50F
:10119000374DAE6946F00106AE61AD6924F0030635
:1011A00005F001050095334D06EB050CDCF8085001
:1011B000A607360F07FA06F825EA0805DFF8B88013
:1011C000404503D14FF0000817E044E0DFF8AC8061
:1011D000404502D14FF001080FE0DFF8A480404500
:1011E00002D14FF0020808E0DFF89880404502D1B4
:1011F0004FF0030801E04FF0040808FA06F848EA47
:101200000508CCF808804D68D9F80060ED024D461D
:1012100001D5164300E096432E604D68DAF8006071
:10122000AD02554601D5164300E096432E604D6849
:10123000DBF80060AD035D4601D5164300E0964340
:101240002E604D68DEF80060ED03754601D516434B
:1012500000E096432E60641C0D682A46E5407FF44A
:1012600031AFBDE8F88F0000080401400000111004
:10127000001002400000014000080140000C014045
:1012800000100140001401408068084000D0012097
:1012900070470AB1016170470904FBE701488068A3
:1012A0007047000000000020024881680278114465
:1012B0008160704700000020074810B5016841F0C8
:1012C00010010160032000F075F80F2000F006F80F
:1012D00000F024F8002010BD0020024070B50D4D34
:1012E00004464FF47A712878B1FBF0F00A49096896
:1012F000B1FBF0F000F070FC48B9102C07D20022CE
:101300002146501E00F036F800206C6070BD0120B0
:1013100070BD0000000000200C0000200C4808B543
:10132000816941F001018161816901F00101009150
:10133000C16941F08051C161C06900F080500090E6
:101340000448416821F0E06141F00071416008BD4E
:101350000010024000000140002809DB00F01F02DD
:10136000012191404009800000F1E020C0F8001107
:1013700070470000F0B40E4B1B680C46C3F3022309
:10138000C3F10705042D00D90425191D072901D231
:10139000002300E0DB1E012606FA05F1491E21406C
:1013A00099409E40761E16403143F0BC02F0E4BEE8
:1013B0000CED00E0064900F0070208684FF6FF0355
:1013C000184040EA0220034A1043086070470000BA
:1013D0000CED00E00000FA052DE9F0470F4605008E
:1013E00061D0434E306800F00700B84209D230683F
:1013F00020F0070038433060306800F00700B84242
:1014000051D128683B4C810712D5400703D560684D
:1014100040F4E06060602878000703D5606840F41D
:10142000605060606068A96820F0F0000843606068
:101430002878C00728D06868012810D021680228C1
:1014400010D0890700292EDA616821F003010143D9
:101450006160FFF723FF804641F288390DE0216883
:101460008903EFE78901EDE7FFF718FFA0EB08011B
:10147000494502D90320BDE8F0876068696800F03B
:101480000C00B0EB810FEFD1306800F00700B842DC
:101490000BD9306820F0070038433060306800F026
:1014A0000700B84201D00120E5E72878400705D5BC
:1014B0006068E96820F4E06008436060287800070D
:1014C00006D56068296920F4605040EAC100606078
:1014D00000F038F86168084AC1F30311515CC84054
:1014E0000649086006480068FFF7F8FE0020C2E7DA
:1014F0000020024000100240A25500080C0000200D
:10150000040000200448054900684968044AC1F302
:101510000221515CC84070470C00002000100240BE
:10152000B25500080448054900684968044AC1F3F7
:10153000C221515CC84070470C00002000100240DE
:10154000B25500080E4A51680E4801F00C03042BF6
:1015500011D0082B0FD10C48C1F38343C903C05CE1
:101560000AD55168084AC1F34041921E515C054AB0
:101570005043B0FBF1F07047044948437047000006
:101580000010024000127A009255000800093D0048
:101590002DE9F84F040070D02078C04DC00749D025
:1015A0006868C0F38100012807D06868C0F3810033
:1015B000022809D16868C00306D52868800339D598
:1015C00060680028E7D035E06068B0F5803F0BD058
:1015D00010B1B0F5A02F11D0286820F48030286019
:1015E000286820F4802002E0286840F480302860D9
:1015F000606890B1FFF752FE06460AE0286840F4A2
:1016000080202860F0E700BFFFF748FE801B6428B9
:1016100073D828688003F7D50CE0FFF73FFE064635
:1016200005E000BFFFF73AFE801B6428F0D8286869
:101630008003F7D420789A4E80074FF001094FF0CD
:10164000000839D5686810F00C0F07D06868C0F33F
:101650008100022809D16868C00306D42868800781
:1016600014D52069012808D110E02069B0B1C6F86E
:101670000090FFF713FE074605E00AE1FFF70EFEB4
:10168000C01B0228C4D828688007F7D5286861697C
:1016900020F0F80040EAC10028600DE0C6F80080A4
:1016A000FFF7FCFD074604E0FFF7F8FDC01B02282A
:1016B00023D828688007F7D4207800072CD57948EC
:1016C000A169D9B1C0F80090FFF7E8FD074604E032
:1016D000FFF7E4FDC01B02280FD8686A8007F7D522
:1016E00071484FF4FA510068B0FBF1F0009000BF70
:1016F0000098411E0091FAD20EE080E0C0F8008010
:10170000FFF7CCFD074604E0FFF7C8FDC01B022829
:1017100075D8686A8007F7D42078400760D5E869F3
:101720000027C00008D4E86940F08050E861E8690B
:10173000012700F0805000905C480168C90513D46F
:101740000168834641F480710160FFF7A7FD82467E
:1017500006E000BFFFF7A2FDA0EB0A0064284ED808
:10176000DBF80000C005F5D5E06801280AD008B113
:10177000052813D0286A20F001002862286A20F08A
:10178000040002E0286A40F001002862E06841F2AB
:10179000883B98B1FFF782FD82460BE0286A40F053
:1017A00004002862EEE700BFFFF778FDA0EB0A0116
:1017B00059455AD8286A8007F6D50CE0FFF76EFD28
:1017C000824605E0FFF76AFDA0EB0A0159454CD8B7
:1017D000286A8007F6D41FB1E86920F08050E861DC
:1017E000E06988B36968C1F38101022944D0022805
:1017F000C6F8608004D0FFF751FD044638E034E0BD
:10180000FFF74CFD074604E0FFF748FDC01B022828
:101810002BD828688001F7D4206AB0F5803F05D125
:101820006868A16820F4003008436860D4E90801C2
:101830000843696821F4741108436860C6F8609031
:10184000FFF72CFD044606E025E000BFFFF726FD6C
:10185000001B022809D828688001F7D51BE000BFCB
:10186000FFF71CFD001B022802D90320BDE8F88FFA
:1018700028688001F4D40EE00128F7D06868226A55
:1018800000F48031914204D1616A00F47010884202
:1018900001D00120EAE70020E8E700000010024044
:1018A00000004242800442420C00002000700040D0
:1018B00070B5040009D0606A002540B125616561FA
:1018C000A56294F8510040B10CE0012070BD606841
:1018D000B0F5827FF4D0E561F2E784F850502046FD
:1018E00000F040F8022084F851002068016821F0DF
:1018F00040010160A088218900F4827001F4044154
:101900000843A18901F400610843217C01F0020130
:101910000843217D01F001010843218B01F400718E
:101920000843217F01F03801084394F8201001F0AA
:1019300080010843218D01F40051084321680860AB
:10194000A069042101EA1040216848602068C1694B
:1019500021F40061C1616565012084F85100002017
:1019600070BD000030B585B000240094019402944D
:1019700003940068184988422BD11848816941F4C2
:1019800080518161816901F480510491816941F044
:10199000080181618069124D00F008000490282040
:1019A0000090022001900320039069462846FFF72B
:1019B0007BFB1020CDE900040120029069462846F7
:1019C000FFF772FB0748416841F0E06141F0010117
:1019D000416005B030BD0000003001400010024001
:1019E000000C0140000001402DE9FF4F81B01D4671
:1019F000934604464FF001090E9EFFF74FFC074641
:101A000094F851006168012806D0B1F5827F3CD17D
:101A1000A168C9BB042838D10298002871D0BBF155
:101A2000000FFBD0002DF9D094F8500001282CD0E5
:101A30004FF0010A84F850A094F85100042802D015
:101A4000052084F851004FF00008C4F85480C4F811
:101A500038B0E587A58702992163E586A586C4F895
:101A60004080C4F8448020680168490603D40168B6
:101A700041F040010160E068B0F5006F606808D097
:101A8000F0B3012D49D081E0FFE7022005B0BDE8A9
:101A9000F08F08B1012D39D1206B21680088C86012
:101AA000206B801C2063E08E401EE0862EE02068C4
:101AB000816889070FD5E18E69B1B9F1010F0AD1AB
:101AC000216B0988C160206B801C2063E08E401E62
:101AD000E0864FF0000920688168C9070CD0E18FCB
:101AE00051B1C068A16B0880A06B801CA063E08F1F
:101AF000401EE0874FF00109FFF7D0FBC01B01E05B
:101B00000BE067E0B04201D3701C50D1E08E00289A
:101B1000CDD1E08F0028CAD13EE0206B216800784B
:101B20000873206B401C2063E08E401EE0862DE091
:101B30002068816889070FD5E18E69B1B9F1010F7D
:101B40000AD1216B09780173206B401C2063E08E61
:101B5000401EE0864FF0000920688168C9070CD05C
:101B6000E18F51B1C068A16B0870A06B401CA063ED
:101B7000E08F401EE0874FF00109FFF78FFBC01B8D
:101B8000B04202D3701C01D011E086B1E08E002873
:101B9000CED1E08F0028CBD13A463146204601F025
:101BA000C2FD50B12020606584F8508012E084F8B6
:101BB00051A084F85080032068E7A06818B9206815
:101BC000C1688068009084F851A084F85080606DEE
:101BD0000028F1D0012059E710B5401EB0F1807FF8
:101BE00001D3012010BD4FF0E02460610F21601788
:101BF00002F0C2FA0020A06107202061002010BD81
:101C00007047704770B590F83C20012A26D0012417
:101C100080F83C40022280F83D2003685A689D68A5
:101C200022F070060A6832435A600D4B02689A42ED
:101C300008D0B2F1804F05D00A4B9A4202D00A4B2D
:101C40009A4204D1496825F080031943916080F8D5
:101C50003D40002180F83C10084670BD022070BD58
:101C6000002C0140000400400008004010B50400B2
:101C700003D094F83D0010B107E0012010BD002012
:101C800084F83C00204600F01FF8022084F83D0054
:101C9000211D206801F0FCFD012084F8460084F835
:101CA0003E0084F83F0084F8400084F8410084F846
:101CB000420084F8430084F8440084F8450084F826
:101CC0003D00002010BD000000B585B0002100914E
:101CD0000191029103912A4A01682A48914211D147
:101CE000816941F4006181618069002200F4006033
:101CF000049002211920FFF73DFB1920FFF72CFB70
:101D000005B000BDB1F1804F17D01F4BC0229942E2
:101D10001CD1C16941F00201C161C16901F0020138
:101D20000491816941F0040181618069694600F094
:101D300004000490009215481EE0C16941F00101C1
:101D4000C161C06900F001000490D9E7104B9942CD
:101D5000D6D1C16941F00401C161C16901F004013A
:101D60000491816941F0080181618069694600F050
:101D70000800049000920748FFF796F9C0E70000BA
:101D8000002C014000100240000400400008014007
:101D900000080040000C014090F83D10012901D0DE
:101DA00001207047022180F83D1000680B498842ED
:101DB00008D0B0F1804F05D00949884202D00949C6
:101DC000884204D1816801F00701062903D0016827
:101DD00041F001010160002070470000002C01402B
:101DE000000400400008004090F83D10012901D097
:101DF00001207047022180F83D100168CA6842F056
:101E00000102CA6000680B49884208D0B0F1804FD7
:101E100005D00949884202D00849884204D1816826
:101E200001F00701062903D0016841F001010160BA
:101E300000207047002C01400004004000080040D2
:101E400070B5044690F83C000025012817D0012603
:101E500084F83C60022084F83D002068826822F00B
:101E6000770222F47F4282600868502838D00DDC67
:101E700020284FD005DC90B3102811D14AE0022071
:101E800070BD302846D040280AD13BE060282FD0D2
:101E900070280DD0B0F5805F03D0B0F5005F12D090
:101EA000012584F83D60002084F83C00284670BD80
:101EB000CB68D1E90121206801F033FD20688168F9
:101EC00041F0770109E0CB68D1E90121206801F0F8
:101ED00028FD2068816841F480418160E1E719E0D4
:101EE000CA684968206801F0D1FD5021206806E0E9
:101EF000CA684968206801F0DAFD6021206801F0B5
:101F00001AFDCEE7CA684968206801F0BFFD40218C
:101F10002068F4E7226801461046F0E72DE9F04119
:101F20000D46040003D094F83D0018B108E00120EC
:101F3000BDE8F081002084F83C00204600F040F825
:101F4000022084F83D002068816844F20702914332
:101F50008160211D206801F09BFC226890689169D6
:101F6000166A2B68AF69034340F20330814341EAAC
:101F70000721A868EF6908434FF6FC418843E968E8
:101F800040EA0720014328692F6A000140EA073030
:101F9000084369686D6926F0220646EA051529435B
:101FA00093602268906154F8460B0162012004F8A6
:101FB0001F09E0752076E0762077A0750020B7E74E
:101FC000704770B590F83E60044690F83F5090F826
:101FD000423090F84320022021B104290ED0012E76
:101FE0001BD114E0012E18D1012B16D184F83E002C
:101FF00084F8420001220021206820E0012D0CD14C
:10200000012A0AD184F83F0084F8430014E0012D2E
:1020100003D1012B01D1012A01D0012070BD84F828
:102020003E0084F83F0084F8420084F84300012217
:102030000021206801F068FC01220421206801F0E1
:1020400063FC2068016841F001010160002070BD5F
:1020500070472DE9F04104460068C66805694FF0F5
:102060000007A90713D5B10711D5F91E0161012099
:102070002077206880698007204602D0FFF7E8FFBC
:1020800004E000F0A3F8204600F035F92777680750
:1020900016D5700714D521686FF00400086102207E
:1020A00020772068806910F4407F204602D0FFF737
:1020B000CFFF04E000F08AF8204600F01CF92777F3
:1020C000280715D5300713D521686FF0080008617F
:1020D000042020772068C0698007204602D0FFF7DF
:1020E000B7FF04E000F072F8204600F004F927770B
:1020F000E80616D5F00614D521686FF010000861C7
:10210000082020772068C06910F4407F204602D064
:10211000FFF79EFF04E000F059F8204600F0EBF8CE
:102120002777E80708D0F00706D021686FF0010094
:102130000861204600F02EF9280608D5300606D59D
:1021400021686FF0800008612046FFF759FD68069E
:1021500008D5700606D521686FF04000086120465A
:1021600000F019F9A8060AD5B00608D521686FF065
:10217000200008612046BDE8F041FFF742BDBDE800
:10218000F081000000B585B000210091019102911D
:1021900003910068B0F1804F11D10A48816941F084
:1021A000040181618069694600F004000490032005
:1021B00000900220019003900348FEF775FF05B0E0
:1021C00000BD00000010024000080140704770B5DB
:1021D000044690F83C0000260D4601280FD001204F
:1021E00084F83C006AB1042A1DD0082A2FD00C2A9A
:1021F0003FD00126002084F83C00304670BD02200C
:1022000070BD206801F0A0FB2068816941F00801E1
:1022100081612068816921F0040181612068816900
:102220002A69114311E0206801F0B6FB206881693A
:1022300041F4006181612068816921F480618161DC
:10224000206881692A6941EA02218161D2E7206818
:1022500001F0CEFB2068C16941F00801C16120682E
:10226000C16921F00401C1612068C1692A69114373
:1022700011E0206801F0E8FB2068C16941F40061C9
:10228000C1612068C16921F48061C1612068C169B0
:102290002A6941EA0221C161ACE710B5040003D00C
:1022A00094F83D0010B107E0012010BD002084F833
:1022B0003C00204600F01EF8022084F83D00211D5D
:1022C000206801F0E5FA012084F8460084F83E0019
:1022D00084F83F0084F8400084F8410084F842000C
:1022E00084F8430084F8440084F8450084F83D00F5
:1022F000002010BD7047704710B50446022249B156
:1023000004290ED0082913D094F84100012816D0D2
:10231000012010BD94F83E000128F9D184F83E2038
:102320000FE094F83F000128F2D184F83F2008E044
:1023300094F840000128EBD184F8402001E084F8B3
:1023400041200122206801F0DFFA0F49206888420D
:1023500003D1426C42F4004242642068884208D0B3
:10236000B0F1804F05D00949884202D0084988421F
:1023700004D1816801F00701062903D0016841F00A
:1023800001010160002010BD002C0140000400404C
:10239000000800407047704770477047F8B5016803
:1023A00004460868CA684B6910F00F0F4FF000052B
:1023B00059D003F0010602F49077374365D0C10786
:1023C00005D0D10503D5616C41F00101616441077D
:1023D00005D5D90703D0616C41F002016164810722
:1023E00005D5D90703D0616C41F004016164010790
:1023F00007D502F02001314303D0616C41F00801A0
:102400006164616C00293AD0800604D5900602D53B
:10241000204601F02CFD20684069616CC0F38010FB
:10242000090700D460B3204601F0FAFC2068406937
:10243000400621D52068143050E8001F21F04001EB
:1024400040E80012002AF5D1E06BA8B16D49416364
:10245000E06BFEF7DDFD002811D0E06B416B01B0B1
:10246000BDE8F040084783060FD593060DD52046FA
:10247000BDE8F84001F0FBBC2046FFF78EFFF8BD39
:102480002046FFF78AFF6564F8BD266B2023012EE6
:102490007CD1C6067AD5D60678D5086848680090FB
:1024A00048694FF00206400640D5E16B0868406875
:1024B0000004000CE8D0A28D8242E5D9E08588694D
:1024C00020282DD020680C3050E8001F21F48071A6
:1024D00040E80012002AF5D12068143050E8001FAF
:1024E00021F0010140E80012002AF5D120681430E3
:1024F00050E8001F21F0400140E80012002AF5D109
:1025000084F84230256320680C3050E8001F21F029
:10251000100140E80012002AF5D1E06BFEF754FDEF
:102520006663A08DE18D401A81B22AE0A08DE18D15
:10253000401A81B2E08D0028A6D00029A4D02268DC
:102540000C3252E8000F20F4907042E80007002F90
:10255000F5D12068143050E8002F22F0010240E845
:102560000027002FF5D184F84230256320680C3015
:1025700050E8002F22F0100240E80023002BF5D194
:1025800066632046FFF708FFF8BDFFE705062BD579
:10259000150629D594F841002128F5D1A068B0F599
:1025A000805F01D12069B0B1206A411C216221689D
:1025B00000784860E08C401E0004000CE084E3D109
:1025C0002068C16821F08001C1602068C16841F0C5
:1025D0004001C160D8E7206A0088C0F30800486065
:1025E000206A801C2062E5E74006CDD55006CBD599
:1025F000CA68204622F04002CA6084F8413000F0E8
:1026000042F9C1E7113E000870B5040004D094F807
:102610004100002510B106E0012070BD84F8405053
:10262000204600F023F8242084F841002068C16887
:1026300021F40051C160204601F07AFC2068016954
:1026400021F4904101612068416921F02A01416132
:102650002068C16841F40051C1606564202084F89D
:10266000410084F842006563002070BDF0B585B07C
:10267000002400940194029403942A4F03682A4989
:1026800002200322294D0126BB4220D18B6943F44D
:1026900080438B618B6903F4804304938B6943F01F
:1026A00004038B618969039201F004010491010222
:1026B000CDE9001069462846FEF7F6FC28158DE89E
:1026C000510069462846FEF7EFFC05B0F0BD184FF3
:1026D000BB42FAD1CB6943F40033CB61CB6903F43D
:1026E000003304938B6943F004038B61896903927F
:1026F00001F0040104910421CDE900106946284647
:10270000FEF7D2FC08208DE8510069462846FEF706
:10271000CBFC002205212620FEF72CFE2620FEF70A
:102720001BFED2E7003801400010024000080140C3
:10273000004400402DE9F84F044690F842009A46C4
:1027400016460D46202802D00220BDE8F88FB5B10C
:10275000AEB100206064222184F842102063FEF7AD
:102760009DFDA6858146E685A0684FF48058202708
:10277000404501D1206920B12E46002529E00120E5
:10278000E3E7002625E04B46002220212046CDF835
:1027900000A001F029FC18B184F842700320D4E7AE
:1027A00026B1A06840451AD038B108E020684068DA
:1027B000C0F3080025F8020B08E0206978B1206812
:1027C000406800F07F0000BF06F8010BE08D401E5E
:1027D000E085E08D0028D6D184F84270B5E7206806
:1027E0004068F1E770472DE9F843044690F841004E
:1027F000984616460D46202802D00220BDE8F883F0
:1028000085B17EB100206064212084F84100FEF78C
:1028100045FDA6848146E684A0682027B0F5805F48
:1028200002D003E00120E9E7206910B12E4600251F
:102830000EE000260CE08021204601F0D5FBA8B96F
:10284000C6B116F8010B21684860E08C401EE08498
:10285000E08C4B464FF00002CDF800800028EAD112
:102860004FF04001204601F0BFFB40B184F84170B9
:102870000320C3E735F8020BC0F30800E3E784F850
:1028800041700020BAE77047FEE700000349C878AE
:10289000002801D00022CA70704700004C000020C0
:1028A00010B5104C02212046FEF7EEFC88B1012144
:1028B0002046FEF7E9FC70B10B4C20212046FEF7C4
:1028C000E3FC50B110212046FEF7DEFC38B10020B9
:1028D00010BD012010BD022010BD032010BD04203A
:1028E00010BD0000000C01400008014010B50A4C6A
:1028F0002078401CC0B2207014280CD30020207017
:102900006078A070FFF7CCFF6070002803D1A0783A
:10291000002800D0E07010BD4C0000202DE9FF47DA
:102920001546DDE90C890E4607461C460E2269460F
:102930003B2000F037F8BDF8000040BA3880BDF801
:10294000020040BA3080BDF8040040BA2880BDF8CB
:10295000080040BA2080BDF80A0040BAA8F800007C
:10296000BDF80C0040BAA9F80000BDE8FF8710B51B
:1029700001216B2000F044F800216C2000F040F8A9
:102980000721192000F03CF800211A2000F038F847
:1029900018211B2000F034F81821BDE810401C203D
:1029A00000F02EB82DE9F04115460E46044600F021
:1029B000BAFAD02000F0A1FA00F06CFA204600F03C
:1029C0009CFA00F067FA00F0AEFAD12000F095FA18
:1029D00000F060FA00246F1E0CE000BF00F069FAFE
:1029E0003055BC4201DA002000E0012000F07AFA04
:1029F000641CE4B2AC42F1D3BDE8F04100F0A2BAED
:102A000070B50D46044600F08EFAD02000F075FA3D
:102A100000F040FA204600F070FA00F03BFA284639
:102A200000F06BFA00F036FABDE8704000F08ABAA8
:102A30002DE9F04385B000253B48009501950295AE
:102A40000395816941F020018161816901F02001D4
:102A50000491816941F004018161816901F00401FF
:102A60000491816941F008018161816901F00801E7
:102A70000491816941F0100181618069DFF8AC80C7
:102A800000F01000049000224FF47F414046FEF712
:102A900000FCDFF89C904FF401470022394648467D
:102AA000FEF7F7FB3020CDE90005012469460294CA
:102AB0004846FEF7F9FA0320CDE90005694602947D
:102AC0004046FEF7F1FA4FF4A060CDE9000402267B
:102AD000CDE9024669464046FEF7E6FA4FF420602B
:102AE000009001AA112082E8510069464046FEF795
:102AF000DBFA4FF470408DE8710069464046FEF7FE
:102B0000D3FA01AA009782E8700069464846FEF7AA
:102B1000CBFA6003CDE90004694606480294FEF74B
:102B2000C3FA05B0BDE8F08300100240000C01407C
:102B30000008014000100140104810B50E49016026
:102B40004FF48271416000218160C1604FF40072D6
:102B50000161C0E905122822C0E9072141628162B2
:102B60000A21C162FEF7A4FE002803D0BDE8104090
:102B7000FEF71CBA10BD0000003001406C000020C0
:102B800010B586B000241748009401940294039471
:102B900004941349059401604721C0E9011440F2EF
:102BA000E731C0E9031444618461FFF75FF808B1BD
:102BB000FEF7FCF94FF48050009069460948FFF792
:102BC0003FF908B1FEF7F2F9049404A90548059409
:102BD000FFF718F8002801D0FEF7E8F906B010BD9D
:102BE000002C0140C400002010B58EB000240794D2
:102BF000089409940A940B941C2168460C94FDF7E0
:102C0000A8FA21484FF0804101602321C0E9011456
:102C10006321C0E903148461FFF728F808B1FEF7C7
:102C2000C5F94FF48050079007A91748FFF708F936
:102C300008B1FEF7BBF91448FFF72FFB08B1FEF708
:102C4000B5F90B940BA910480C94FEF7DBFF08B103
:102C5000FEF7ACF96020CDE9000402940022694639
:102C600009480494FFF7B3FA08B1FEF79FF904226C
:102C700069460548FFF7ABFA08B1FEF797F9024835
:102C8000FFF780FA0EB010BD0C01002010B58CB01B
:102C900024216846FDF75DFA002419480994174974
:102CA0000A94C0E900144FF6FF71C0E902410461C3
:102CB0008461FEF7DBFF08B1FEF778F90320CDE968
:102CC00000040120CDE902040F210491CDE9054063
:102CD000CDE9074169460A48FFF720F908B1FEF738
:102CE00065F9099409A906480A94FEF78BFF0028A4
:102CF00001D0FEF75BF90CB010BD000000040040ED
:102D00005401002010B58CB024216846FDF721FA4B
:102D100000241948099417490A94C0E900144FF691
:102D2000FF71C0E9024104618461FEF79FFF08B1B1
:102D3000FEF73CF90320CDE9000401200F21022217
:102D4000CDE90204CDE904120690CDE907416946B8
:102D50000948FFF7E3F808B1FEF728F9099409A933
:102D600005480A94FEF74EFF002801D0FEF71EF931
:102D70000CB010BD000800409C0100200C4810B5AC
:102D80000A4901604FF416514160002181600C2214
:102D9000C160C0E904128161C161FFF735FC002800
:102DA00003D0BDE81040FEF701B910BD0038014066
:102DB000E40100200C4810B50A4901604FF4165197
:102DC0004160002181600C22C160C0E90412816170
:102DD000C161FFF719FC002803D0BDE81040FEF7E1
:102DE000E5B810BD004400402C020020FEE700F0D2
:102DF00077BC00002DE9F0410C46214D664280B1C0
:102E000001283AD18103C703002C28DB0022284681
:102E1000FEF73FFA012239462846FEF73AFAA0B2F9
:102E200027E04FF480514F00002C0ADB0122284696
:102E3000FEF72FFA002239462846FEF72AFAA0B2FA
:102E400009E000222846FEF724FA012239462846E6
:102E5000FEF71FFAB0B2BDE8F04100F057BC012206
:102E60002846FEF716FA002239462846FEF711FAE0
:102E7000B0B2BDE8F04100F04FBCBDE8F081000009
:102E8000000C01404FF400610148FEF7FDB900005D
:102E9000000C014010B5012000F068F8012000F09E
:102EA0005DF8FFF7EFFF0446002000F057F82046DA
:102EB00010BD70B50025012000F058F800248026D0
:102EC000012000F04BF8FFF7DDFF10B126FA04F007
:102ED0000543002000F042F8641CE4B2082CEFD354
:102EE000284670BD10B500F041F8012000F036F81A
:102EF000BDE81040002000F031B870B5002406464F
:102F0000802525FA04F0304000D0012000F02EF892
:102F1000012000F023F8002000F020F8641CE4B247
:102F2000082CEED370BD10B5012000F01FF8012071
:102F300000F014F8002000F019F8BDE8104000205F
:102F400000F00CB810B5002000F010F8012000F0DF
:102F500005F8BDE81040012000F008B802464FF423
:102F600080610148FEF795B9000C014002464FF41C
:102F700000610148FEF78DB9000C0140FEE710B575
:102F8000002000F09BF8E22000F07EF8BDE8104041
:102F9000012000F093B810B5002000F08FF8E12078
:102FA00000F072F8BDE81040012000F087B8000082
:102FB00010B5FFF7C1FD0548FEF7D4FC002000F076
:102FC00075F8BDE81040012000F078B86C000020D2
:102FD00010B5FFF7EDFF0821002000F077F83F2142
:102FE000012000F073F80121022000F06FF80321A6
:102FF000084600F06BF80321042000F067F8022176
:10300000052000F063F80E21062000F05FF8202173
:10301000112000F05BF8052207490A2000F068F84B
:10302000FFF7B9FFFFF7ABFF7021072000F04EF864
:10303000BDE8104000F013B85900002010B5044658
:10304000002000F03BF8204600F01EF8FF2000F0C2
:103050001BF80446012000F031F8204610BD10B5E1
:10306000002000F023F80020FFF7E8FFFF2809D038
:1030700040F00301002000F029F8BDE810400120D5
:1030800000F014B810BD00000EB501238DF8040047
:103090004FF0FF30009002AA01A90348FEF7A4FCFC
:1030A0009DF808000EBD00006C00002002464FF4A1
:1030B00080710148FEF7EDB80008014002464FF468
:1030C00000410148FEF7E5B80008014070B504462C
:1030D0000D460020FFF7F2FF44F02000FFF7D4FF79
:1030E0002846FFF7D1FFBDE870400120FFF7E6BF9B
:1030F00070B5044615460E460020FFF7DFFF44F08A
:103100002000FFF7C1FF002404E0305DFFF7BCFFA3
:10311000641CE4B2AC42F8D3BDE870400120FFF774
:10312000CDBF000010B50021074C0A46002004EB7B
:10313000C1131A54401CC0B28028FAD3491CC9B22A
:103140000829F3D310BD000074020020F0B50B4431
:1031500024E0044685181DE07F2C19D8002917DBD0
:103160003F2915DCCE1701EB56764FEAE60C0D4FE2
:1031700026F0070607EBCC172744A1EB060E97F8BD
:1031800000C0012606FA0EF62CEA060C87F800C0ED
:10319000641C24B2A542DFDC491C09B28B42D8DC96
:1031A000F0BD00007402002010B500204FF47A72C8
:1031B0000021491C9142FCD3401C9042F8D30120CD
:1031C00000F0F8F9BDE81040012000F0FBB970B53F
:1031D00000240646802525FA04F0304000D0012066
:1031E00000F0F0F9012000F0E5F9002000F0E2F92C
:1031F000641CE4B2082CEED3012000F0DBF9BDE83A
:103200007040002000F0D6B910B5012000F0DAF9C6
:10321000012000F0CFF9002000F0D4F9BDE8104003
:10322000002000F0C7B910B5002000F0CBF9012054
:1032300000F0C0F9BDE81040012000F0C3B910B59E
:10324000FFF7B2FFAE2000F0C5F9D52000F0C2F9BB
:10325000802000F0BFF9A82000F0BCF93F2000F06A
:10326000B9F9D32000F0B6F9002000F0B3F94020FE
:1032700000F0B0F9A12000F0ADF9C82000F0AAF9E3
:10328000DA2000F0A7F9122000F0A4F9812000F064
:10329000A1F9CF2000F09EF9D92000F09BF9F12090
:1032A00000F098F9DB2000F095F9302000F092F959
:1032B000A42000F08FF9A62000F08CF98D2000F0FA
:1032C00089F9142000F086F9AF2000F083F9FFF7A8
:1032D00029FFBDE8104000F059B90FB470B5C0B077
:1032E00014460D46064648AA6846479900F01EFF58
:1032F00023466A462946304600F092F840B070BC3A
:103300005DF814FB10B50C4640F0B00000F062F917
:10331000102040EA141000F05DF904F00F00BDE841
:10332000104000F057B9000008B5082B0DD0062B4F
:103330000AD10A4B02EB420203EB4202C03A00926E
:103340000823062200F00EF808BD054B03EB02121D
:10335000A2F50072102300920822F3E7AA5B00088E
:10336000BA5500082DE9F04F1F4616460D46824615
:103370000024FFF7EBFE7F1EF81707EB50700121CA
:10338000DFF898B001EBE00743E000203DE000BF2C
:103390000AEB00037F2B36D8E91705EB5171CA10F1
:1033A00021F00701691A002D03DA521E083112B20A
:1033B00009B202EB0409B9F1070F0ED8099A04FB10
:1033C00006F802440BEBC91E18F802201EF803C0D1
:1033D0008A404CEA020C0EF803C009F10102072AE8
:1033E00011D80BEBC91202EB0308099A04FB06FC87
:1033F000024498F880301CF80220C1F10801CA404C
:10340000134388F88030401CC0B2B042C0D3641C63
:10341000E4B2A742B9DCBDE8F08F000074020020DE
:103420002DE9FF4F002483B09B4690462546A246D7
:10343000DFF850919EE0100610D403988DF8042018
:10344000641C2844A4B28DF805A000B25B46049920
:10345000FFF76AFF05EB0B0085B28BE00620B0EBAF
:10346000521F0ED1641CA0B28DF8042018F8001071
:10347000002974D08DF80510401C84B28DF806A088
:103480003CE00E20B0EB121F16D1641CA0B28DF8E8
:10349000042018F80010002971D0401C80B28DF86B
:1034A000051018F80010002969D08DF80610401C8E
:1034B00084B28DF807A021E01E20B0EBD20F1FD1FF
:1034C000641CA0B28DF8042018F80010002956D012
:1034D000401C80B28DF8051018F8001000294ED05D
:1034E000401C80B28DF8061018F80010002946D054
:1034F000401C8DF8071084B28DF808A0002609E062
:10350000641CA4B236E0384601A9FCF72DFE68B170
:10351000761CB6B206EB860000EB461101EB090003
:10352000074619A1FCF720FE0028ECD1BBF1080FDB
:1035300003D0BBF1060F1DD112E006EB860000EBB5
:10354000461101EB0900401D009003981023284408
:1035500000B21A460499FFF705FF103509E00EE0A6
:1035600003980623284400B23F220499FFF7DCFEAB
:10357000AD1DADB218F80420002A7FF45CAF07B08F
:10358000BDE8F08FE45D00080000000070B5084D54
:10359000002400212046FFF7B5FE05EBC410802172
:1035A00000F029F8641CE4B2082CF2D370BD0000CE
:1035B0007402002002464FF480710148FDF769BE95
:1035C000000C014002464FF400710148FDF761BE56
:1035D000000C014010B50446FFF716FE7820FFF7F7
:1035E000F6FD0020FFF7F3FD2046FFF7F0FDBDE8F4
:1035F0001040FFF718BE70B50D460646FFF704FEF3
:103600007820FFF7E4FD4020FFF7E1FD002404E00F
:10361000305DFFF7DCFD641CE4B2AC42F8D3BDE8DA
:103620007040FFF700BE70B50446D4E90001FCF716
:103630002AFE01462062606AFCF7D3FD6062616B7E
:10364000FDF780F801D2606B05E0A16B606AFDF7C1
:103650006FF801D2A06B6062D4E90101FCF713FEA0
:10366000A169FCF716FE0546616A6069FCF711FE68
:103670000646216A2069FCF70CFE3146FCF7B1FDD5
:103680002946FCF700FEE060A16AFDF75BF801D275
:10369000A06A05E0E16AE068FDF74AF801D2E06A55
:1036A000E060216BE068FCF79CFDE060206AE0616F
:1036B0006068A06070BDF0B50DF1140E9EE8F010CA
:1036C00000F1100E8EE80E00002141608160C160A3
:1036D0004162C161016240F8281B80E8F010F0BD32
:1036E00010B5FFF781FA0848FEF7EEFA0648FEF734
:1036F00053FB00210448FEF7FFFDBDE81040042104
:103700000148FEF7F9BD00000C01002001490968DD
:10371000486370470C0100200149096888637047BD
:103720000C0100207047F8B515460E460B46009276
:1037300004460122022100F011F840B9334600226C
:1037400080212046009500F009F8002804D0606D23
:1037500040F0200060650320F8BD00002DE9F8432B
:103760001E46914688460446089DFDF797FD401B7E
:10377000351AFDF793FD074625480068C0F3CB30A6
:10378000684338E0701C37D0FDF788FDC01BA842A5
:1037900003D215B1009860B32CE02068416821F095
:1037A000E00141606068B0F5827F0BD1A068B0F5A0
:1037B000004F02D0B0F5806F04D12068016821F07D
:1037C00040010160A06AB0F5005F09D1206801687E
:1037D00021F4005101602068016841F4005101604A
:1037E000012084F85100002084F850000320BDE837
:1037F000F8830025401E00902068816838EA0100A7
:1038000004D000214945BDD10020F0E70121F9E7AE
:103810000C0000207047FDF747BD30B58FB0282160
:103820006846FCF796FC14210AA8FCF792FC0121DB
:103830000804CDE900100024029402250491CDE98A
:1038400007504FF4E01009906846FDF7A1FE08B15B
:1038500072B6FEE70F20CDE90A054FF48060CDE98E
:103860000C4002210AA80E94FDF7B6FD002801D0F5
:1038700072B6FEE70FB030BD7047000010B500F023
:1038800085F9BDE810400148FEF7E3BBC400002005
:10389000F0B50268194B1A4C1A4D4FF08047984208
:1038A00005D0B84203D0A04201D0A84203D122F0F3
:1038B00070064A683243984205D0B84203D0A0420D
:1038C00001D0A84203D122F44074CA6822434C6953
:1038D00022F08002224302608A68C2620A68826221
:1038E000984201D109690163012141610169C90758
:1038F00003D0016921F001010161F0BD002C0140FC
:10390000000400400008004010B501F01F03012131
:10391000046A99408C430462016A9A40114301622F
:1039200010BD10B5846842EA032224F47F440A43A0
:103930002243826010BD826822F070020A4342F086
:10394000070181607047000030B5036A026A22F007
:10395000010202624268846924F073050C682C43FA
:1039600023F002058B682B430A4DA8420BD123F0AC
:103970000805CB6822F440722B434D6923F0040301
:1039800015438A692A43426084614968416303623E
:1039900030BD0000002C014030B5026A036A23F0FC
:1039A00010030362436884690D6824F4E64444EA22
:1039B00005248D6822F0200242EA05120B4DA84230
:1039C0000ED1CD6822F0800242EA05124D6923F43F
:1039D000406343EA85038D6922F0400243EA850390
:1039E0004360846149688163026230BD002C0140FC
:1039F00030B5036A026A22F4807202624268C469C6
:103A000023F4007324F073050C682C438D6843EA9B
:103A100005230C4DA8420ED1CD6823F4006343EA80
:103A200005234D6922F4405242EA05128D6923F4C0
:103A3000806342EA05124260C4614968C16303625F
:103A400030BD0000002C014030B5046A026A22F447
:103A5000805202624268C3690D6823F4E64343EA78
:103A600005238D6824F4005444EA0534064DA84229
:103A700004D14D6922F4804242EA85124260C3615A
:103A800049680164046230BD002C014010B5036A2E
:103A9000046A24F001040462846924F0F00444EA16
:103AA000021423F00A020A438461026210BD10B5B9
:103AB000036A046A24F010040462846923F0A003FA
:103AC00024F4704444EA023243EA01118261016243
:103AD00010BD0000F0B585B0FFF752F81B48FEF7A7
:103AE000F3F81A48FEF780F919481A49CDE903108E
:103AF000194C1B48194A8DE815002346194A1A49E2
:103B00001A48FFF7D8FD1A481C4F1A490097CDE90B
:103B100003100025184E1A4A1448CDE901652B46BA
:103B200051073C30FFF7C7FD164801A9049681E80C
:103B3000A100154800900D48002322464FF0814116
:103B40007830FFF7B8FD05B0F0BD0000C4000020DC
:103B50000000C8C100007A43000040400000C8C215
:103B60000000C842CDCC4C3E0000904074060020BE
:103B700000008CC200008C420000A0C10000A041E7
:103B80000AD7233C000048C2000048422DE9FC4708
:103B9000DFF834A2DAF800000069C043C00775D12D
:103BA000FEF7A4FE894CDFF828924FF000086088E9
:103BB000401C80B26080A188491CA1800A286FD374
:103BC00004F11001881EA4F80280CDE90001831ED3
:103BD000021F811F0838FEF7A1FEB4F90A00FCF7A6
:103BE00035FD05460E46B4F90600FCF72FFD2A46C2
:103BF000334601F0C9F8774A774BFCF7A1FC002265
:103C0000764BFCF72BFCFCF777FD4FF07F51FCF770
:103C1000E8FA07466062E0891E3000B2E081FCF7F6
:103C200015FD6FF00E02FCF7FAFC00226C4BFCF75E
:103C300015FC6C4A6C4BFCF711FC05460E46E06A1D
:103C4000FCF72EFD2A463346FCF761FBFCF754FDDA
:103C50000146A062654E6648FCF71BFB05463946E7
:103C60003046FCF716FB2946FCF7BBFAE062DAF8AF
:103C70000010496A6182012121705E49884202DA9E
:103C80005D49884203D384F8018003E099E06178BC
:103C9000012906D000210846FFF7ACF800212FE0EB
:103CA00031E0C9F804004D464948FFF7BCFCE8681C
:103CB000FCF7DDFC2083B4F91A10642301EBD17208
:103CC000A0EB620100EB620009B202B2A18258428D
:103CD000E282642901DDA38202E0814200DAA0824F
:103CE000642A01DDE38202E0824200DAE082207D84
:103CF000404241B20020FFF77DF8A07D404241B232
:103D00000120FFF777F8A08832285AD3A4F804805E
:103D10000020FDF717F9FCF799FC384D00222B46DF
:103D2000FCF70EFC364E374F32463B46FCF708FC9C
:103D3000DFF8D480DFF8D4A042465346FCF700FCFD
:103D4000FCF7DAFCE0610120FDF7FCF8FCF77EFCF3
:103D500000222B46FCF7F4FB32463B46FCF7F0FB17
:103D600042465346FCF7ECFBFCF7C6FC06462062D5
:103D7000E06931460746FCF734FA4FF0FF31FCF7B3
:103D8000BAFA0546206339463046FCF77CFA606390
:103D90006078012815D10E4E3C3630467560FFF72D
:103DA00042FCF168C9F8001006F13C05606B6860E0
:103DB0002846FFF738FCE86880F00040FCF757FC25
:103DC0006083BDE8FC870000C400002014000020D0
:103DD000740600206E861BF0F9210940008066C041
:103DE00000409F407B14AE47E17A843F0AD7233CD2
:103DF000A4707D3F00004842000048C200004640D9
:103E00009A9999999999A93F04392861A68D2240D8
:103E100010B5406A0021C185C184FEF7BEFA10BD0D
:103E200001680C3151E8002F22F4907241E8002320
:103E3000002BF5D10168143151E8002F22F0010266
:103E400041E80023002BF5D1016B012909D101685C
:103E50000C3151E8002F22F0100241E80023002B22
:103E6000F5D1202180F8421000210163704708B588
:103E700090F84210222901D0022008BD82684FF438
:103E800080539A4201D1016921B1816A9A421BD0C3
:103E90004AB10AE00268816A5268C2F308020A80E5
:103EA000816A891C08E0026972B10268526802F0F6
:103EB0007F020A70816A491C8162C18D491E090412
:103EC000090CC18503D01BE002685268F1E7016864
:103ED000CA6822F02002CA600168CA6822F48072AF
:103EE000CA6001684A6922F001024A61202180F813
:103EF000421000214163026B012A03D0FEF772FCDD
:103F0000002008BD016301680C3151E8002F22F048
:103F1000100241E80023002BF5D101680A68D2069F
:103F200002D50A6849680091818DFEF735FAE7E706
:103F300070B5044600680169E26821F440511143FC
:103F400001612169A0680843616908432168CA6862
:103F500041F20C639A430243CA6020684169A26936
:103F600021F44071114341611E492068884202D109
:103F7000FDF7D8FA01E0FDF7C5FA00EBC00101EB4F
:103F80000012606864218000B2FBF0F3B3FBF1F330
:103F90006FF018067343B2FBF0F5B2FBF0F605EBD9
:103FA0008305322303EB0515B5FBF1F5B6FBF1F6FE
:103FB00005F0F00505EB0615B2FBF0F6B2FBF0F0EC
:103FC000B0FBF1F06FF01802504306EB800003EBFA
:103FD0000010B0FBF1F0216800F00F002844886069
:103FE00070BD0000003801402DE9F843984617469F
:103FF0000D460446089E24E0701C22D0FDF74EF9C1
:10400000A0EB0800B0421AD8CEB12068C1684907B9
:1040100017D5802D15D0402D13D00168C94309074D
:104020000FD401680025406800902046FFF7F8FE95
:104030000820606484F840500120BDE8F883032024
:10404000FBE72068006835EA000004D00020B84291
:10405000D2D00020F1E70120F9E7000010B5FEF70B
:104060008DFEFEF7A7FE05480168CA6842F02002EF
:10407000CA6000680249016010BD00002C020020E7
:10408000DFFFFFEF38B5174C2068016816488843FA
:1040900022D04FF0FF33012269462046FEF74AFB4B
:1040A000124800210123027812B1012A10D106E042
:1040B0009DF800205B2A0BD14180037008E09DF839
:1040C00000500B4A5D2D08D041885554491C418051
:1040D00005482168C043086038BD017045885155C6
:1040E0004370F5E72C020020200000105000002053
:1040F0002807002010B5FFF7C5FFBDE810400148B4
:10410000FEF74CB92C020020FEE700000FB4054B6F
:1041100010B503A9044A029800F08AF910BC5DF8B2
:1041200014FB0000354F00086400002037B514462A
:104130000846064B6A46214600F07AF9044669466D
:10414000002000F00CFD20463EBD00005F4B000843
:10415000490050EAC12018BF04204A0D18BF40F0A2
:10416000010040F2FF72B2EB515F08BF40F0020065
:10417000012808BF052070470907090E002804DB45
:1041800000F1E02080F80014704700F00F0000F10B
:10419000E02080F8141D7047004870476800002038
:1041A0002DE9F0414F1E00EBC7010446D1E90001A3
:1041B00015461E4637F006020DD02A463346FCF758
:1041C0004DF97F1E04EBC703D3E90023FCF79FF8EA
:1041D00037F00602F1D1022F25D0042F13D0062F7D
:1041E00018BFBDE8F0812A463346FCF737F9D4E919
:1041F0000A23FCF78CF82A463346FCF72FF9D4E95A
:104200000823FCF784F82A463346FCF727F9D4E95B
:104210000623FCF77CF82A463346FCF71FF9D4E95D
:104220000423FCF774F82A463346FCF717F9D4E95F
:104230000223FCF76CF82A463346FCF70FF9D4E961
:104240000023BDE8F041FCF762B80122FCF7E7B9B2
:10425000FCF75DB8024A00201107FCF7E0B9000046
:1042600001FDFFFF01480068704700006800002062
:1042700002E008C8121F08C1002AFAD1704770472F
:10428000002001E001C1121F002AFBD1704700008D
:104290000149086070470000680000202DE9FF5FB9
:1042A00082B00021DDE90430020DDDF840B00343A7
:1042B00018D044F61050A2F2FF3242431514119860
:1042C00001281FD0A5EB0B00401C5FEA000A4FF04D
:1042D00000064E4FDFF83891B046504615D5CAF16A
:1042E000000413E0119801244AA3012801D16FEAC8
:1042F0000B010298119AC0E90031C0E9024206B0F0
:10430000BDE8F09FCBF10000DFE704460021404A02
:10431000491842EB0450CDE9001012E0E00707D045
:1043200032463B4640464946FCF798F88046894667
:1043300032463B4610461946FCF790F806460F46B3
:104340006410002CEAD1DDE90401DDE90023BAF1B3
:10435000000F06DAFCF782F842464B46FCF77EF87F
:1043600005E0FCF7EDF842464B46FCF7E9F8044659
:104370000E460022284BFCF7A7F903D84FF0FF3078
:10438000014607E00022254B20463146FBF7BFFFE0
:10439000FCF764FB102409E0002C0ADB0A2200234E
:1043A000FCF7F0F9039B30321A55641E50EA010203
:1043B000F2D1641C039AC4F111031444119A012A26
:1043C00003D0012208430DD10AE0084304D00020A5
:1043D0004FF0110B119072E7A3EB0B056D1E0DE072
:1043E0005B4504DD4FF0000205F1010504E003DA4E
:1043F0004FF00002A5F10105002AECD002981199B6
:10440000C0E90231C0E9004579E70000000014402E
:104410000000F03F300000000000F0430000E03FEB
:1044200030380A2801D20120704700207047000070
:104430002DE9FF4F95B09B468946064600250FE2C1
:10444000252877D100242746F84A0121059400E069
:10445000044316F8013F203B01FA03F01042F7D164
:1044600030782A2811D06FF02F033078A0F1300275
:10447000092A16D8059A44F0020402EB820203EBE3
:1044800042021044761C0590EFE759F8042B059280
:10449000002A03DA504244F40054059044F0020428
:1044A000761C30782E2816D116F8010F44F004043B
:1044B0002A280DD06FF02F023078A0F13003092B9D
:1044C00009D807EB870302EB4303C718761CF3E711
:1044D00059F8047B761C30786C280FD006DC4C2809
:1044E00017D068280DD06A2814D104E0742810D0A1
:1044F0007A280FD10DE044F400140AE044F480144B
:1045000001E044F440147278824202D104F5801430
:10451000761C761C307866280BD013DC582877D0B0
:1045200009DC002875D04528F6D04628F4D0472865
:104530001AD19DE118E0632835D0642879D0652828
:1045400012D195E1702873D008DC6728F1D0692872
:104550006FD06E280DD06F2806D1B5E073282CD00F
:10456000752875D0782874D05A46179990476D1CD5
:1045700075E1C4F30250022809D003280DD0D9F800
:10458000001004280DD00D6009F1040967E1D9F885
:104590000010EA17C1E90052F6E7D9F800100D80C3
:1045A000F2E70D70F0E719F8041B8DF800100020F9
:1045B0008DF80100EA46012003E059F804AB4FF002
:1045C000FF3061074FF0000102D40DE008F1010156
:1045D0008846B9420FDA8045F8DB1AF8081000293E
:1045E000F4D108E008F1010188468142FADB1AF8AB
:1045F00008100029F6D105985B46A0EB0807214674
:104600003846179A00F094FA284400EB080507E0B2
:104610004DE029E10DE01AF8010B5A461799904731
:10462000B8F10108F7D25B4621463846179A13E1E4
:1046300042E00A220092C4F302524FF0000A022A1A
:1046400008D059F804CB032A4FEAEC710AD00DE0E8
:1046500029E02AE009F1070121F00702F2E802C18E
:10466000914609E00FFA8CFC4FEAEC71042A03D161
:104670004FFA8CFC4FEAEC71002907DA0A46002158
:10468000DCF1000C61EB02012D2202E0220504D5D1
:104690002B228DF80420012203E0E20701D0202222
:1046A000F7E7904659E00A2102E010220DE01021C0
:1046B0004FF0000A00910BE010224FF0000A44F086
:1046C00004040827009203E008224FF0000A009239
:1046D000C4F30252022A05D059F804CB0021032A60
:1046E00008D009E009F1070121F00702F2E802C150
:1046F000914605E01FFA8CFC042A01D10CF0FF0C56
:104700004FF00008220728D5702806D0009B83F0C0
:10471000100353EA0A0305D00EE040228DF804206E
:10472000012208E05CEA010206D030228DF8042064
:104730008DF8050002229046009B83F0080353EA9F
:104740000A030AD15CEA010201D1620705D53022D1
:104750008DF804204FF001087F1E582804D034A0A3
:1047600003900EA802900DE036A0F9E7534660468C
:10477000009AFCF707F884460398825C0298401E72
:10478000029002705CEA0100F0D1029806A9081AB2
:1047900000F1200A600702D524F4803400E00127EC
:1047A000574502DDA7EB0A0000E0002000EB0A01FC
:1047B000009005984144401A0590E00306D45B46FA
:1047C0002146179A059800F0B3F90544002706E042
:1047D00001A85A46C05D179990476D1C7F1C47453C
:1047E000F6DBE0030CD55B462146179A059800F0EE
:1047F0009FF9054404E030205A46179990476D1CF4
:104800000099481E00900029F5DC08E00298029902
:104810005A460078491C0291179990476D1CBAF1CD
:104820000001AAF1010AF1DC65E10000092801009C
:104830003031323334353637383961626364656616
:1048400000000000303132333435363738394142D8
:10485000434445460000000000F058F90544761C2A
:10486000307800287FF4ECAD19B02846BDE8F08F11
:10487000620700D4062709F1070222F0070CFCE8C2
:104880000223E14603F000485FEA080C02D00FF271
:10489000702C0DE05FEA045C02D50FF2682C07E093
:1048A0005FEAC47C02D00FF2602C01E0AFF2700C22
:1048B0004FF0FF3823F00043CDF850C065280CD0EE
:1048C00006DC452809D046281DD047283DD13DE0CB
:1048D000662818D067287ED138E00021112F01DB2F
:1048E000112000E0781CCDE9000106A90EA8FFF711
:1048F000D5FCDDE90F010E9A03910021009207F12A
:10490000010A04914DE04FF000400097CDE90110FD
:1049100006A90EA8FFF7C2FCDDE90F0203920E9B69
:1049200011990022DDF80CA00093049211B9791CB2
:1049300000EB010AB7EB0A0004D4C0F1FF3007F125
:10494000010A0490AAEB0700019044E0012F00DA6D
:1049500001270021112F01DD112000E03846CDE9AB
:10496000000106A90EA8FFF799FCDDE90F010E9AD8
:104970000391002104910092BA4621070CD40399B7
:10498000514500DA8A46BAF1010F05DD009AAAF115
:104990000101515C302908D0B84202DA10F1040F4D
:1049A00006DA0121CDE9011015E0AAF10101E9E7DC
:1049B000002805DC049901440491AAEB000102E0FF
:1049C000411C514500DD8A460499401A401C019063
:1049D0004FF000400290200704D40198504501DBBD
:1049E000CDF8048000208DF84F0002980DF14F079C
:1049F000B0F1004F25D02B200E9002984FF0020806
:104A000000280CDA404202902D200E9007E00A2187
:104A10000298FBF7A1FE3031029007F8011DB8F1B2
:104A20000001A8F10108F2DC02980028EFD1791EFC
:104A30000E980870307800F0200040F0450007F82C
:104A4000020D12A8C01B00F107081498007800B1ED
:104A5000012000EB0A01019801EBE0710598414447
:104A6000401A401E0590E00306D45B462146179A83
:104A7000059800F05DF805441498007818B15A467E
:104A8000179990476D1CE00324D55B462146179A81
:104A9000059800F04DF805441CE00498002807DB59
:104AA000DDE90301884203DD0098405C179901E0CD
:104AB000179930205A469047049805F10105401C8B
:104AC00004900198401E019004D12E205A46179957
:104AD00090476D1CBAF10001AAF1010ADDDC05E086
:104AE00017F8010B5A46179990476D1CB8F1000151
:104AF000A8F10108F4DC5B462146179A0598ABE65D
:104B00002D0000002B000000200000002DE9F041E6
:104B1000044600251E461746880404D405E039469D
:104B20002020B0476D1C641EF9D52846BDE8F081F1
:104B30002DE9F041044600251E469046C80301D5E4
:104B4000302700E02027880404D505E04146384698
:104B5000B0476D1C641EF9D52846BDE8F0810A688F
:104B6000531C0B60107070472DE9F84F04460D463A
:104B700021F0004000917349814211DC7249884262
:104B800001DC06D12CB120462946BDE8F84FFFF7DD
:104B90005CBB6E48002DCCBF6D496E49BDE8F88FF7
:104BA0006D49814211DD6D498142D8BF4FF0FF361A
:104BB0006DDD20462946FFF7CBFA042808BFFFF732
:104BC00049FB20462946BDE8F88F6549654F25F029
:104BD0000045814233DD6449814219DD00263246B9
:104BE0004FF0804320462946FBF791FB80468A46DA
:104BF000012220462946FBF712FD00223B46FBF727
:104C000027FC42465346FBF79BFC04460D463EE01C
:104C100001260022BA463B4620462946FBF777FB91
:104C200080460F460022534620462946FBF710FCDB
:104C300042463B46FBF784FC04460D4627E04B49C1
:104C400081421BDDDFF828A10226002253462046C0
:104C50002946FBF703FC00223B46FBF758FB804646
:104C60000F460022534620462946FBF7F1FB4246F9
:104C70003B46FBF765FC04460D4608E0032622464A
:104C80002B4600203B49FBF75BFC04460D462246C1
:104C90002B4610461946FBF7E1FB8B46824602463F
:104CA0000B46FBF7DBFB07460246334888460B46BC
:104CB00006217844FFF774FA52465B46FBF7CEFBB9
:104CC00082462E488B463A46434605217844FFF7F4
:104CD00067FA3A464346FBF7C1FB02460B46002EF5
:104CE000504659460CDAFBF712FB22462B46FBF7DF
:104CF000B5FB01B022462B46BDE8F04FFBF7ABBB3E
:104D0000FBF705FB22462B46FBF7A8FB1C4A7A441F
:104D100002EBC603D3E90023FBF79AFB22462B469E
:104D2000FBF796FB174A7A4402EBC603D3E900234C
:104D3000FBF791FB009A002AB8BF81F00041BDE863
:104D4000F88F0000000010440000F07F182D44543C
:104D5000FB21F93FFB21F9BF0000DC3F0000203EB2
:104D60000000F33F0000F03F0000E63F00800340FA
:104D70000000F83F0000F0BF9A1200005812000037
:104D8000F6110000BE1100002DE9F04D9446CCF163
:104D9000000423F000464CEA0404524F46EAD4745F
:104DA0009A46884621F00042BC4206D8454240EA75
:104DB000050442EAD474BC4204D9BDE8F04D624611
:104DC000FFF746BAAAF14055A5F17F6555EA0C04F4
:104DD0000BD0022404EAAA74434DDFF810E144EA40
:104DE000D87452EA000B04D00CE0BDE8F04DFFF798
:104DF000BBBE002C14BF012CBDE8F08D022C30D0BE
:104E0000032C32D056EA0C0B0AD0BE4220D1BA4253
:104E100009D126F0804622F080423346114617E041
:104E200000291ADB25E0DFF8C8B0FB44002C04BFE2
:104E3000DBE90001BDE8F08D012C02BFDBE90001D8
:104E400081F00041BDE8F08D022C0AD0032C0CD07B
:104E5000BA4212D1B8F1000F0BDA23482549BDE858
:104E6000F08D28462449BDE8F08D28467146BDE8FE
:104E7000F08D1D482149BDE8F08D921B12153C2A8A
:104E8000C4BF19481D490EDCBAF1000FBEBF12F1B4
:104E90003C0F0020014606DB6246FBF751FB21F088
:104EA0000041FFF761FE002C08BFBDE8F08D012C2A
:104EB00004BF81F00041BDE8F08D114A114B022C76
:104EC00007D0FBF7C5FA2A46BDE8F04D0A4BFBF7C1
:104ED000BFBAFBF7BDFA2A46BDE8F04D064BFBF71B
:104EE000BABA00000000F07F182D4454FB2109C01D
:104EF00052110000FB21F9BFFB210940FB21F93FC2
:104F0000075C143326A6A13C30B583B00446FFF7F6
:104F1000A9F905460020CDE9000002462146684671
:104F2000FBF79DFC2846FFF7B3F9DDE9000103B06C
:104F300030BD000013B54FF0FF330122694602482F
:104F4000FDF751FC00981CBD2C02002086B0FCF738
:104F5000B3F9FEF762FCFDF76BFDFEF770F9FEF7A3
:104F6000B9FDFDF704FDFDF742FFFBF7FDFFFFF77D
:104F700075F8FEF72DF8DFF808A4DFF80894DFF8DD
:104F80000884DFF808B400BFFDF780FC8AF8000051
:104F9000012899F8000002D001287CD004E0002804
:104FA0007AD0002089F800005FF001024FF4005130
:104FB000F748FCF76EF9FEF7B5F80021F5A30622D5
:104FC0000846FEF78AF94446D8F81000FBF768FB5C
:104FD000CDE90001F1A3062208210020FEF77DF9AA
:104FE0006069FBF75DFBCDE90001EFA3062210210C
:104FF0000020FEF772F9A069FBF752FBCDE9000132
:10500000ECA3062218210020FEF767F92068FBF7C1
:1050100047FBCDE90001EAA3062220210020FEF78C
:105020005CF9EA480068FBF73BFBCDE90001E8A327
:10503000062228210020FEF750F9E068FBF730FB3C
:10504000CDE90001E5A3062230210020FEF745F955
:10505000E548E6A30622B0F90000009038210020C0
:10506000FEF73BF9206BFBF71BFBCDE90001382174
:10507000E1A306220846FEF730F9E3A30622002149
:105080003220FEF72AF95C46DBF81000FBF708FB3C
:10509000DFA3062201E0C0E08EE0CDE90001082197
:1050A0003220FEF71AF96069FBF7FAFACDE9000140
:1050B000D7A3062210213220FEF70FF9A069FBF7D3
:1050C000EFFACDE90001D2A3062218213220FEF723
:1050D00004F92068FBF7E4FACDE90001CEA306222B
:1050E00020213220FEF7F9F8CD480068FBF7D8FA06
:1050F000CDE90001C8A3062228213220FEF7EDF8F1
:10510000E068FBF7CDFACDE90001C6A30622302105
:105110003220FEF7E2F8C5A3062200215820FEF750
:10512000DCF8C44D2869FBF7BBFACDE90001B8A350
:10513000062208215820FEF7D0F86869FBF7B0FA7C
:10514000CDE90001B2A3062210215820FEF7C5F8D0
:10515000A869FBF7A5FACDE90001ADA30622182145
:105160005820FEF7BAF82868FBF79AFACDE9000153
:10517000A9A3062220215820FEF7AFF8AE48006808
:10518000FBF78EFACDE90001A3A3062228215820BF
:10519000FEF7A3F8E868FBF783FACDE90001A1A3C5
:1051A000062230215820FEF798F8FEF7EFF9FBF7BA
:1051B000FFFE012833D0C8E1A24CA348CDE9010489
:1051C000A2489E4900909E4ACDE903212346A04A69
:1051D000A0496D48FEF76FFA9F48A24F9F4900977C
:1051E000CDE9031000259E4E9F4ACDE901652B466F
:1051F00051076648FEF75FFA9C4801A9049681E8CA
:10520000A1009B480090002322464FF0814189482D
:10521000FEF751FA012189F800100022C6E695A197
:105220009548FAF7AFFF064694A1FAF79DFF58B1EB
:1052300093A13046FAF798FF78B193A13046FAF778
:1052400093FF002874D080E18AA10020FAF79AFF2A
:1052500088A10020FAF796FF77E186A10020FAF7EF
:1052600091FF064683A10020FAF78CFF074689A12B
:105270003046FAF779FF00282FD088A13046FAF798
:1052800073FF002831D087A13046FAF76DFF002860
:1052900035D086A13046FAF767FF70B385A1304656
:1052A000FAF762FF50B385A13046FAF75DFF70B39D
:1052B00084A13046FAF758FF50B384A13046FAF77C
:1052C00053FFA0B383A13046FAF74EFF88B383A102
:1052D0003046FAF749FF68B337E13846FFF714FE66
:1052E000FBF70AFAC8F810002FE13846FFF70CFE6A
:1052F000FBF702FAC8F8140027E10AE010E038468C
:10530000FFF702FEFBF7F8F9C8F818001DE112E0FC
:1053100018E03846FFF7F8FDFBF7EEF9206114E1DD
:105320003846FFF7F1FDFBF7E7F960610DE110E0AA
:10533000D8E015E01BE03846FFF7E6FDFBF7DCF9A7
:10534000A06102E13846FFF7DFFDFBF7D5F92861E0
:10535000FBE03846FFF7D8FDFBF7CEF96861F4E0D3
:105360003846FFF7D1FDFBF7C7F9A861EDE03846F5
:10537000FFF7CAFDFBF7C0F9C8F83000E5E0000010
:10538000100000201500002074060020B006002048
:10539000001001402020416E676C6500503A2530B6
:1053A000352E326600000000493A2530352E32662F
:1053B00000000000443A2530352E3266000000001F
:1053C000543A252B30352E31660000004000002075
:1053D000413A252B30352E31660000004F3A252BFF
:1053E00030352E30660000002200002047593A2553
:1053F0002B303564000000004F66667365743A25F3
:105400002B303266000000005370656564000000B8
:105410002530352E32660000252B30352E316600C2
:1054200044000020252B30352E3066005475726EF6
:1054300000000000EC0600204800002000007AC3B5
:1054400000007A43000040400000C8C20000C8428B
:10545000CDCC4C3E0000904000008CC200008C423D
:105460000000A0C10000A0410AD7233C000048C2B0
:10547000000048422C000000280700206B657900DE
:10548000736C6964657200006A6F79737469636B29
:1054900000000000416E676C654B7000416E676CE8
:1054A000654B6900416E676C654B640053706565C0
:1054B000644B700053706565644B6900537065659B
:1054C000644B64005475726E4B7000005475726EBC
:1054D0004B6900005475726E4B6400004F66667332
:1054E00065740000AFF274010020FAF74BFEFAF782
:1054F0006BFEAFF280010020FAF744FEFAF764FE7B
:1055000047B2AFF290010020FAF73CFEFAF75CFEDA
:1055100046B2AFF2A0010020FAF734FEFAF754FECB
:105520003846FBF793F8154F00223B46FBF708F887
:10553000FBF7E2F820607042FBF788F800223B4658
:10554000FAF7FEFFFBF7D8F82860686AFBF7A8F8BF
:1055500005460E46606AFBF7A3F804460F46D8F8E6
:105560002400FBF79DF8CDE90047CDE9025602463D
:105570000B4603A0FEF7CAFD06E500000000394017
:105580005B706C6F742C25662C25662C25665D007F
:10559000010202030405060708090A0B0C0D0E0F91
:1055A00010100000000000000000010203040607C4
:1055B00008090000000001020304000000000000D0
:1055C00000000000000000000000000000F80000E3
:1055D0000000000000333000000000160E00160E20
:1055E0000000000000000000000040C07840C078CB
:1055F0004000043F04043F040400007088FC0830AD
:105600000000001820FF211E0000F008F000E01844
:10561000000000211C031E211E0000F008887000FD
:1056200000001E21232419272110000000160E005F
:1056300000000000000000000000000000E018046E
:105640000200000000071820400000020418E000DB
:1056500000000040201807000000404080F080401B
:1056600040000202010F01020200000000F00000F1
:1056700000000101011F0101010000000000000005
:10568000000000B0700000000000000000000000FA
:105690000000000101010101010100000000000003
:1056A00000000030300000000000000000008060BA
:1056B0001804006018060100000000E0100808103F
:1056C000E000000F102020100F00001010F8000064
:1056D00000000020203F20200000007008080888FB
:1056E00070000030282422213000003008888848CB
:1056F00030000018202020110E000000C02010F8FB
:10570000000000070424243F240000F808888808CB
:1057100008000019212020110E0000E010888818D0
:105720000000000F112020110E0000380808C838B2
:1057300008000000003F0000000000708808088892
:105740007000001C222121221C0000E0100808101B
:10575000E0000000312222110F00000000C0C00054
:1057600000000000003030000000000000C0C00059
:105770000000000080B07000000000008040201099
:105780000800000102040810200040404040404052
:1057900040000404040404040400000810204080B5
:1057A00000000020100804020100007048080808EA
:1057B000F0000000003036010000C030C828E810BA
:1057C000E0000718272423140B000000C038E00075
:1057D0000000203C23020227382008F888888870BF
:1057E0000000203F202020110E00C03008080808CB
:1057F0003800071820202010080008F808080810B2
:10580000E000203F202020100F0008F88888E808DA
:105810001000203F20202320180008F88888E8087E
:105820001000203F200003000000C03008080838A6
:10583000000007182020221E020008F808000008B7
:10584000F808203F210101213F20000808F808083E
:1058500000000020203F2020000000000808F80879
:105860000800C08080807F00000008F888C02818E9
:105870000800203F20012638200008F8080000001A
:105880000000203F20202020300008F8F800F8F821
:105890000800203F003F003F200008F830C000080B
:1058A000F808203F200007183F00E0100808081003
:1058B000E0000F10202020100F0008F8080808084A
:1058C000F000203F210101010000E010080808104D
:1058D000E0000F18242438504F0008F88888888882
:1058E0007000203F2000030C30200070880808085A
:1058F00038000038202121221C00180808F8080868
:1059000018000000203F2000000008F808000008F0
:10591000F808001F202020201F000878880000C8F9
:105920003808000007380E010000F80800F80008E9
:10593000F800033C0700073C0300081868808068F3
:10594000180820302C03032C30200838C800C83831
:1059500008000000203F2000000010080808C83898
:1059600008002038262120201800000000FE020236
:1059700002000000007F40404000000C30C00000EA
:105980000000000000010638C00000020202FE0014
:105990000000004040407F00000000201008040884
:1059A00010200000000000000000000000000000C7
:1059B00000008080808080808080000204080000D9
:1059C00000000000000000000000000080808080D7
:1059D00000000019242222223F2008F800808000C5
:1059E0000000003F112020110E0000000080808088
:1059F0000000000E1120202011000000008080888F
:105A0000F800000E112020103F20000080808080D0
:105A10000000001F222222221300008080F08888CC
:105A200088180020203F2020000000008080808017
:105A30008000006B94949493600008F8008080804C
:105A40000000203F210000203F20008098980000A7
:105A500000000020203F20200000000000809898D7
:105A6000000000C08080807F000008F80000808077
:105A70008000203F24022D302000000808F800009C
:105A800000000020203F2020000080808080808057
:105A90008000203F20003F20003F00808000808069
:105AA000000000203F2100203F20000080808080F7
:105AB0000000001F202020201F0080800080800028
:105AC000000080FFA12020110E00000000808080D7
:105AD0008000000E112020A0FF8080808000808048
